8=FIX.4.4|9=80|35=A|34=1|49=EXEC_SERVER|52=20260131-05:07:20.563|56=MINIFIX_CLIENT|98=0|108=30|10=134|8=FIX.4.4|9=183|35=8|34=2|49=EXEC_SERVER|52=20260131-05:07:25.824|56=MINIFIX_CLIENT|6=0|11=86568552|14=0|17=EXEC_1769836045821|37=GEN_1769836045816|38=100|39=0|40=2|44=200|54=2|55=GOOG|150=0|151=100|10=000|8=FIX.4.4|9=68|35=0|34=3|49=EXEC_SERVER|52=20260131-05:07:56.614|56=MINIFIX_CLIENT|10=106|8=FIX.4.4|9=68|35=0|34=4|49=EXEC_SERVER|52=20260131-05:08:26.608|56=MINIFIX_CLIENT|10=108|8=FIX.4.4|9=68|35=0|34=5|49=EXEC_SERVER|52=20260131-05:08:56.607|56=MINIFIX_CLIENT|10=111|8=FIX.4.4|9=68|35=0|34=6|49=EXEC_SERVER|52=20260131-05:09:26.608|56=MINIFIX_CLIENT|10=111|